{
  "contractName": "DTheatre",
  "abi": [
    {
      "inputs": [],
      "stateMutability": "nonpayable",
      "type": "constructor"
    },
    {
      "inputs": [],
      "name": "baseFees",
      "outputs": [
        {
          "internalType": "uint256",
          "name": "",
          "type": "uint256"
        }
      ],
      "stateMutability": "view",
      "type": "function"
    },
    {
      "inputs": [
        {
          "internalType": "uint256",
          "name": "",
          "type": "uint256"
        }
      ],
      "name": "movies",
      "outputs": [
        {
          "internalType": "uint256",
          "name": "id",
          "type": "uint256"
        },
        {
          "internalType": "uint256",
          "name": "price",
          "type": "uint256"
        },
        {
          "internalType": "string",
          "name": "movieName",
          "type": "string"
        },
        {
          "internalType": "uint256",
          "name": "remainingSeats",
          "type": "uint256"
        },
        {
          "internalType": "bool",
          "name": "isComplete",
          "type": "bool"
        }
      ],
      "stateMutability": "view",
      "type": "function"
    },
    {
      "inputs": [],
      "name": "owner",
      "outputs": [
        {
          "internalType": "address",
          "name": "",
          "type": "address"
        }
      ],
      "stateMutability": "view",
      "type": "function"
    },
    {
      "inputs": [
        {
          "internalType": "address",
          "name": "",
          "type": "address"
        }
      ],
      "name": "tickets",
      "outputs": [
        {
          "internalType": "address",
          "name": "owner",
          "type": "address"
        },
        {
          "internalType": "uint256",
          "name": "seatNumber",
          "type": "uint256"
        },
        {
          "internalType": "uint256",
          "name": "movieId",
          "type": "uint256"
        },
        {
          "internalType": "string",
          "name": "movieName",
          "type": "string"
        },
        {
          "internalType": "uint256",
          "name": "seatType",
          "type": "uint256"
        },
        {
          "internalType": "uint256",
          "name": "price",
          "type": "uint256"
        }
      ],
      "stateMutability": "view",
      "type": "function"
    },
    {
      "inputs": [
        {
          "internalType": "uint256",
          "name": "_price",
          "type": "uint256"
        },
        {
          "internalType": "string",
          "name": "_name",
          "type": "string"
        },
        {
          "internalType": "uint256",
          "name": "_remaining",
          "type": "uint256"
        }
      ],
      "name": "addMovie",
      "outputs": [
        {
          "internalType": "bool",
          "name": "",
          "type": "bool"
        }
      ],
      "stateMutability": "payable",
      "type": "function"
    },
    {
      "inputs": [
        {
          "internalType": "uint256",
          "name": "_id",
          "type": "uint256"
        },
        {
          "internalType": "uint256",
          "name": "_row",
          "type": "uint256"
        },
        {
          "internalType": "uint256",
          "name": "_col",
          "type": "uint256"
        },
        {
          "internalType": "uint256",
          "name": "_type",
          "type": "uint256"
        }
      ],
      "name": "bookTicket",
      "outputs": [
        {
          "internalType": "bool",
          "name": "",
          "type": "bool"
        }
      ],
      "stateMutability": "payable",
      "type": "function"
    },
    {
      "inputs": [],
      "name": "cancelTicket",
      "outputs": [
        {
          "internalType": "bool",
          "name": "",
          "type": "bool"
        }
      ],
      "stateMutability": "payable",
      "type": "function"
    },
    {
      "inputs": [],
      "name": "getBal",
      "outputs": [
        {
          "internalType": "uint256",
          "name": "",
          "type": "uint256"
        }
      ],
      "stateMutability": "view",
      "type": "function"
    }
  ],
  "bytecode": "0x608060405234801561001057600080fd5b50336000806101000a81548173ffffffffffffffffffffffffffffffffffffffff021916908373ffffffffffffffffffffffffffffffffffffffff16021790555061132f806100606000396000f3fe60806040526004361061007b5760003560e01c80638da5cb5b1161004e5780638da5cb5b1461015e5780639c3402de14610189578063ca36385c146101b9578063ddb382f9146101d75761007b565b8063171168de1461008057806325caa262146100b0578063404ebf6c146100db5780636dcbf2a31461011c575b600080fd5b61009a60048036038101906100959190610be2565b610202565b6040516100a79190610c71565b60405180910390f35b3480156100bc57600080fd5b506100c56103de565b6040516100d29190610c9b565b60405180910390f35b3480156100e757600080fd5b5061010260048036038101906100fd9190610cb6565b6103e6565b604051610113959493929190610d7c565b60405180910390f35b34801561012857600080fd5b50610143600480360381019061013e9190610e34565b6104b1565b60405161015596959493929190610e70565b60405180910390f35b34801561016a57600080fd5b50610173610595565b6040516101809190610ed8565b60405180910390f35b6101a3600480360381019061019e9190610ef3565b6105b9565b6040516101b09190610c71565b60405180910390f35b6101c161087d565b6040516101ce9190610c71565b60405180910390f35b3480156101e357600080fd5b506101ec610a54565b6040516101f99190610c9b565b60405180910390f35b60008060009054906101000a900473ffffffffffffffffffffffffffffffffffffffff1673ffffffffffffffffffffffffffffffffffffffff163373ffffffffffffffffffffffffffffffffffffffff1614610293576040517f08c379a000000000000000000000000000000000000000000000000000000000815260040161028a90610fa6565b60405180910390fd5b6103e834146102d7576040517f08c379a00000000000000000000000000000000000000000000000000000000081526004016102ce90611012565b60405180910390fd5b600160008154809291906102ea90611061565b91905055506040518060a00160405280600154815260200186815260200185858080601f016020809104026020016040519081016040528093929190818152602001838380828437600081840152601f19601f82011690508083019250505050505050815260200183815260200160011515815250600260006001548152602001908152602001600020600082015181600001556020820151816001015560408201518160020190805190602001906103a4929190610a5a565b506060820151816003015560808201518160040160006101000a81548160ff02191690831515021790555090505060019050949350505050565b600047905090565b6002602052806000526040600020600091509050806000015490806001015490806002018054610415906110d9565b80601f0160208091040260200160405190810160405280929190818152602001828054610441906110d9565b801561048e5780601f106104635761010080835404028352916020019161048e565b820191906000526020600020905b81548152906001019060200180831161047157829003601f168201915b5050505050908060030154908060040160009054906101000a900460ff16905085565b60036020528060005260406000206000915090508060000160009054906101000a900473ffffffffffffffffffffffffffffffffffffffff1690806001015490806002015490806003018054610506906110d9565b80601f0160208091040260200160405190810160405280929190818152602001828054610532906110d9565b801561057f5780601f106105545761010080835404028352916020019161057f565b820191906000526020600020905b81548152906001019060200180831161056257829003601f168201915b5050505050908060040154908060050154905086565b60008054906101000a900473ffffffffffffffffffffffffffffffffffffffff1681565b600084600060026000838152602001908152602001600020905060008160030154141561061b576040517f08c379a00000000000000000000000000000000000000000000000000000000081526004016106129061117d565b60405180910390fd5b60008587610629919061119d565b90506000806000905061011891506002871415610649576001905060b491505b600387141561065b5760029050609691505b6000600260008c815260200190815260200160002090508234146106b4576040517f08c379a00000000000000000000000000000000000000000000000000000000081526004016106ab90611243565b60405180910390fd5b6040518060c001604052803373ffffffffffffffffffffffffffffffffffffffff1681526020018581526020018c81526020018260020180546106f6906110d9565b80601f0160208091040260200160405190810160405280929190818152602001828054610722906110d9565b801561076f5780601f106107445761010080835404028352916020019161076f565b820191906000526020600020905b81548152906001019060200180831161075257829003601f168201915b5050505050815260200189815260200184815250600360003373ffffffffffffffffffffffffffffffffffffffff1673ffffffffffffffffffffffffffffffffffffffff16815260200190815260200160002060008201518160000160006101000a81548173ffffffffffffffffffffffffffffffffffffffff021916908373ffffffffffffffffffffffffffffffffffffffff16021790555060208201518160010155604082015181600201556060820151816003019080519060200190610839929190610a5a565b506080820151816004015560a0820151816005015590505080600301600081548092919061086690611263565b919050555060019650505050505050949350505050565b600080600360003373ffffffffffffffffffffffffffffffffffffffff1673ffffffffffffffffffffffffffffffffffffffff16815260200190815260200160002090506000816002015411610908576040517f08c379a00000000000000000000000000000000000000000000000000000000081526004016108ff906112d9565b60405180910390fd5b600081600201549050600060026000838152602001908152602001600020905080600301600081548092919061093d90611061565b9190505550600360003373ffffffffffffffffffffffffffffffffffffffff1673ffffffffffffffffffffffffffffffffffffffff168152602001908152602001600020600080820160006101000a81549073ffffffffffffffffffffffffffffffffffffffff0219169055600182016000905560028201600090556003820160006109c99190610ae0565b6004820160009055600582016000905550508260000160009054906101000a900473ffffffffffffffffffffffffffffffffffffffff1673ffffffffffffffffffffffffffffffffffffffff166108fc84600501549081150290604051600060405180830381858888f19350505050158015610a49573d6000803e3d6000fd5b506001935050505090565b6103e881565b828054610a66906110d9565b90600052602060002090601f016020900481019282610a885760008555610acf565b82601f10610aa157805160ff1916838001178555610acf565b82800160010185558215610acf579182015b82811115610ace578251825591602001919060010190610ab3565b5b509050610adc9190610b20565b5090565b508054610aec906110d9565b6000825580601f10610afe5750610b1d565b601f016020900490600052602060002090810190610b1c9190610b20565b5b50565b5b80821115610b39576000816000905550600101610b21565b5090565b600080fd5b600080fd5b6000819050919050565b610b5a81610b47565b8114610b6557600080fd5b50565b600081359050610b7781610b51565b92915050565b600080fd5b600080fd5b600080fd5b60008083601f840112610ba257610ba1610b7d565b5b8235905067ffffffffffffffff811115610bbf57610bbe610b82565b5b602083019150836001820283011115610bdb57610bda610b87565b5b9250929050565b60008060008060608587031215610bfc57610bfb610b3d565b5b6000610c0a87828801610b68565b945050602085013567ffffffffffffffff811115610c2b57610c2a610b42565b5b610c3787828801610b8c565b93509350506040610c4a87828801610b68565b91505092959194509250565b60008115159050919050565b610c6b81610c56565b82525050565b6000602082019050610c866000830184610c62565b92915050565b610c9581610b47565b82525050565b6000602082019050610cb06000830184610c8c565b92915050565b600060208284031215610ccc57610ccb610b3d565b5b6000610cda84828501610b68565b91505092915050565b600081519050919050565b600082825260208201905092915050565b60005b83811015610d1d578082015181840152602081019050610d02565b83811115610d2c576000848401525b50505050565b6000601f19601f8301169050919050565b6000610d4e82610ce3565b610d588185610cee565b9350610d68818560208601610cff565b610d7181610d32565b840191505092915050565b600060a082019050610d916000830188610c8c565b610d9e6020830187610c8c565b8181036040830152610db08186610d43565b9050610dbf6060830185610c8c565b610dcc6080830184610c62565b9695505050505050565b600073ffffffffffffffffffffffffffffffffffffffff82169050919050565b6000610e0182610dd6565b9050919050565b610e1181610df6565b8114610e1c57600080fd5b50565b600081359050610e2e81610e08565b92915050565b600060208284031215610e4a57610e49610b3d565b5b6000610e5884828501610e1f565b91505092915050565b610e6a81610df6565b82525050565b600060c082019050610e856000830189610e61565b610e926020830188610c8c565b610e9f6040830187610c8c565b8181036060830152610eb18186610d43565b9050610ec06080830185610c8c565b610ecd60a0830184610c8c565b979650505050505050565b6000602082019050610eed6000830184610e61565b92915050565b60008060008060808587031215610f0d57610f0c610b3d565b5b6000610f1b87828801610b68565b9450506020610f2c87828801610b68565b9350506040610f3d87828801610b68565b9250506060610f4e87828801610b68565b91505092959194509250565b7f596f7520617265206e6f7420746865206f776e65720000000000000000000000600082015250565b6000610f90601583610cee565b9150610f9b82610f5a565b602082019050919050565b60006020820190508181036000830152610fbf81610f83565b9050919050565b7f506c656173652050726f766964652073756666696369656e74204d6f6e657900600082015250565b6000610ffc601f83610cee565b915061100782610fc6565b602082019050919050565b6000602082019050818103600083015261102b81610fef565b9050919050565b7f4e487b7100000000000000000000000000000000000000000000000000000000600052601160045260246000fd5b600061106c82610b47565b91507fffffffffffffffffffffffffffffffffffffffffffffffffffffffffffffffff82141561109f5761109e611032565b5b600182019050919050565b7f4e487b7100000000000000000000000000000000000000000000000000000000600052602260045260246000fd5b600060028204905060018216806110f157607f821691505b60208210811415611105576111046110aa565b5b50919050565b7f4e6f205365617473204172652052656d61696e696e6720666f7220746869732060008201527f6d6f766965000000000000000000000000000000000000000000000000000000602082015250565b6000611167602583610cee565b91506111728261110b565b604082019050919050565b600060208201905081810360008301526111968161115a565b9050919050565b60006111a882610b47565b91506111b383610b47565b9250817fffffffffffffffffffffffffffffffffffffffffffffffffffffffffffffffff04831182151516156111ec576111eb611032565b5b828202905092915050565b7f506c6561736520676976652073756666696369656e7420416d6f756e74000000600082015250565b600061122d601d83610cee565b9150611238826111f7565b602082019050919050565b6000602082019050818103600083015261125c81611220565b9050919050565b600061126e82610b47565b9150600082141561128257611281611032565b5b600182039050919050565b7f5469636b6574204e6f7420457869737400000000000000000000000000000000600082015250565b60006112c3601083610cee565b91506112ce8261128d565b602082019050919050565b600060208201905081810360008301526112f2816112b6565b905091905056fea26469706673582212208c47104e26ec714d34c8298d71dc74c67cae39cf0d7a438ec96dc5fbd62e8ce364736f6c634300080b0033",
  "immutableReferences": {},
  "source": "// SPDX-License-Identifier: MIT\r\npragma solidity ^0.8.11;\r\n\r\ncontract DTheatre{\r\n    address public owner;\r\n    uint public constant baseFees= 1000 wei;\r\n    uint movieId;\r\n\r\n    constructor(){\r\n        owner= msg.sender;\r\n    }\r\n    // first make movie display \r\n    struct MovieDisplay{\r\n        uint id;\r\n        uint price;\r\n        string movieName;\r\n        uint remainingSeats;\r\n        bool isComplete;\r\n    }\r\n    // event eventMovieDisplay\r\n    struct TicketBook{\r\n        address owner;\r\n        uint seatNumber;\r\n        uint movieId;\r\n        string movieName;\r\n        uint seatType;\r\n        uint price;\r\n\r\n    }\r\n    enum Type{\r\n        PRIME,\r\n        CLASSIC_PLUS,\r\n        CLASSIC\r\n    }\r\n    mapping(uint=>MovieDisplay) public movies;\r\n    mapping(address=>TicketBook) public tickets;\r\n\r\n    function addMovie(uint _price,string calldata _name,uint _remaining) public payable isOwner returns(bool){\r\n        require(msg.value==baseFees,\"Please Provide sufficient Money\");\r\n        movieId++;\r\n        movies[movieId]= MovieDisplay(movieId,_price,_name,_remaining,true);\r\n        return true;\r\n        \r\n    }\r\n    function bookTicket(uint _id, uint _row , uint _col,uint _type) public payable checkSeatIsAvailable(_id) returns(bool){\r\n        uint _seatNumber= _row * _col;\r\n        uint price;\r\n        Type _ticketType= Type.PRIME;\r\n        price= 280;\r\n        if(_type==2){\r\n            _ticketType=Type.CLASSIC_PLUS;\r\n            price=180 wei;\r\n        }\r\n        if(_type==3){\r\n            _ticketType=Type.CLASSIC;\r\n            price= 150 wei;\r\n        }\r\n        MovieDisplay storage movie = movies[_id];\r\n        require(msg.value==price,\"Please give sufficient Amount\");\r\n        tickets[msg.sender]= TicketBook(msg.sender,_seatNumber,_id,movie.movieName,_type,price);\r\n\r\n        movie.remainingSeats--;\r\n        return true;\r\n    }\r\n\r\n    function cancelTicket() public payable returns(bool){\r\n        TicketBook storage ticket= tickets[msg.sender];\r\n        require(ticket.movieId>0,\"Ticket Not Exist\");\r\n        uint _id= ticket.movieId;\r\n        MovieDisplay storage movie = movies[_id];\r\n        movie.remainingSeats++;\r\n        delete tickets[msg.sender];\r\n        payable(ticket.owner).transfer(ticket.price);// 40 wei is the deduction amount of cancellation \r\n        return true;\r\n    }\r\n    function getBal() view public returns(uint){\r\n        return address(this).balance;\r\n    }\r\n    // Modifiers For theatre Functions \r\n    modifier isOwner(){\r\n        require(msg.sender==owner,\"You are not the owner\");\r\n        _;\r\n    }\r\n    modifier checkSeatIsAvailable(uint _id){\r\n        MovieDisplay storage movie = movies[_id];\r\n        require(movie.remainingSeats!=0,\"No Seats Are Remaining for this movie\");\r\n        _;\r\n    }\r\n}",
  "sourcePath": "C:\\Users\\HP\\Desktop\\DTheatre\\contracts\\DTheatre.sol",
  "compiler": {
    "name": "solc",
    "version": "0.8.11+commit.d7f03943.Emscripten.clang"
  },
  "schemaVersion": "3.4.4",
  "updatedAt": "2022-05-24T08:22:53.732Z",
  "devdoc": {
    "kind": "dev",
    "methods": {},
    "version": 1
  },
  "userdoc": {
    "kind": "user",
    "methods": {},
    "version": 1
  }
}